{
  "_format": "hh-sol-artifact-1",
  "contractName": "SKLL",
  "sourceName": "contracts/SKLL.sol",
  "abi": [
    {
      "inputs": [
        {
          "internalType": "string",
          "name": "_initBaseURI",
          "type": "string"
        }
      ],
      "stateMutability": "nonpayable",
      "type": "constructor"
    },
    {
      "inputs": [],
      "name": "ApprovalCallerNotOwnerNorApproved",
      "type": "error"
    },
    {
      "inputs": [],
      "name": "ApprovalQueryForNonexistentToken",
      "type": "error"
    },
    {
      "inputs": [],
      "name": "BalanceQueryForZeroAddress",
      "type": "error"
    },
    {
      "inputs": [],
      "name": "MintERC2309QuantityExceedsLimit",
      "type": "error"
    },
    {
      "inputs": [],
      "name": "MintToZeroAddress",
      "type": "error"
    },
    {
      "inputs": [],
      "name": "MintZeroQuantity",
      "type": "error"
    },
    {
      "inputs": [],
      "name": "OwnerQueryForNonexistentToken",
      "type": "error"
    },
    {
      "inputs": [],
      "name": "OwnershipNotInitializedForExtraData",
      "type": "error"
    },
    {
      "inputs": [],
      "name": "TransferCallerNotOwnerNorApproved",
      "type": "error"
    },
    {
      "inputs": [],
      "name": "TransferFromIncorrectOwner",
      "type": "error"
    },
    {
      "inputs": [],
      "name": "TransferToNonERC721ReceiverImplementer",
      "type": "error"
    },
    {
      "inputs": [],
      "name": "TransferToZeroAddress",
      "type": "error"
    },
    {
      "inputs": [],
      "name": "URIQueryForNonexistentToken",
      "type": "error"
    },
    {
      "anonymous": false,
      "inputs": [
        {
          "indexed": true,
          "internalType": "address",
          "name": "owner",
          "type": "address"
        },
        {
          "indexed": true,
          "internalType": "address",
          "name": "approved",
          "type": "address"
        },
        {
          "indexed": true,
          "internalType": "uint256",
          "name": "tokenId",
          "type": "uint256"
        }
      ],
      "name": "Approval",
      "type": "event"
    },
    {
      "anonymous": false,
      "inputs": [
        {
          "indexed": true,
          "internalType": "address",
          "name": "owner",
          "type": "address"
        },
        {
          "indexed": true,
          "internalType": "address",
          "name": "operator",
          "type": "address"
        },
        {
          "indexed": false,
          "internalType": "bool",
          "name": "approved",
          "type": "bool"
        }
      ],
      "name": "ApprovalForAll",
      "type": "event"
    },
    {
      "anonymous": false,
      "inputs": [
        {
          "indexed": true,
          "internalType": "uint256",
          "name": "fromTokenId",
          "type": "uint256"
        },
        {
          "indexed": false,
          "internalType": "uint256",
          "name": "toTokenId",
          "type": "uint256"
        },
        {
          "indexed": true,
          "internalType": "address",
          "name": "from",
          "type": "address"
        },
        {
          "indexed": true,
          "internalType": "address",
          "name": "to",
          "type": "address"
        }
      ],
      "name": "ConsecutiveTransfer",
      "type": "event"
    },
    {
      "anonymous": false,
      "inputs": [
        {
          "indexed": true,
          "internalType": "address",
          "name": "previousOwner",
          "type": "address"
        },
        {
          "indexed": true,
          "internalType": "address",
          "name": "newOwner",
          "type": "address"
        }
      ],
      "name": "OwnershipTransferred",
      "type": "event"
    },
    {
      "anonymous": false,
      "inputs": [
        {
          "indexed": true,
          "internalType": "address",
          "name": "from",
          "type": "address"
        },
        {
          "indexed": true,
          "internalType": "address",
          "name": "to",
          "type": "address"
        },
        {
          "indexed": true,
          "internalType": "uint256",
          "name": "tokenId",
          "type": "uint256"
        }
      ],
      "name": "Transfer",
      "type": "event"
    },
    {
      "inputs": [],
      "name": "MaxperWallet",
      "outputs": [
        {
          "internalType": "uint256",
          "name": "",
          "type": "uint256"
        }
      ],
      "stateMutability": "view",
      "type": "function"
    },
    {
      "inputs": [],
      "name": "MaxperWalletWL",
      "outputs": [
        {
          "internalType": "uint256",
          "name": "",
          "type": "uint256"
        }
      ],
      "stateMutability": "view",
      "type": "function"
    },
    {
      "inputs": [
        {
          "internalType": "uint256",
          "name": "tokens",
          "type": "uint256"
        },
        {
          "internalType": "bytes32[]",
          "name": "merkleProof",
          "type": "bytes32[]"
        }
      ],
      "name": "WlMint",
      "outputs": [],
      "stateMutability": "payable",
      "type": "function"
    },
    {
      "inputs": [
        {
          "internalType": "address",
          "name": "to",
          "type": "address"
        },
        {
          "internalType": "uint256",
          "name": "tokenId",
          "type": "uint256"
        }
      ],
      "name": "approve",
      "outputs": [],
      "stateMutability": "payable",
      "type": "function"
    },
    {
      "inputs": [
        {
          "internalType": "address",
          "name": "owner",
          "type": "address"
        }
      ],
      "name": "balanceOf",
      "outputs": [
        {
          "internalType": "uint256",
          "name": "",
          "type": "uint256"
        }
      ],
      "stateMutability": "view",
      "type": "function"
    },
    {
      "inputs": [],
      "name": "baseExtension",
      "outputs": [
        {
          "internalType": "string",
          "name": "",
          "type": "string"
        }
      ],
      "stateMutability": "view",
      "type": "function"
    },
    {
      "inputs": [],
      "name": "baseURI",
      "outputs": [
        {
          "internalType": "string",
          "name": "",
          "type": "string"
        }
      ],
      "stateMutability": "view",
      "type": "function"
    },
    {
      "inputs": [],
      "name": "cost",
      "outputs": [
        {
          "internalType": "uint256",
          "name": "",
          "type": "uint256"
        }
      ],
      "stateMutability": "view",
      "type": "function"
    },
    {
      "inputs": [
        {
          "internalType": "uint256",
          "name": "tokenId",
          "type": "uint256"
        }
      ],
      "name": "getApproved",
      "outputs": [
        {
          "internalType": "address",
          "name": "",
          "type": "address"
        }
      ],
      "stateMutability": "view",
      "type": "function"
    },
    {
      "inputs": [
        {
          "internalType": "uint256",
          "name": "_mintAmount",
          "type": "uint256"
        },
        {
          "internalType": "address",
          "name": "destination",
          "type": "address"
        }
      ],
      "name": "gift",
      "outputs": [],
      "stateMutability": "nonpayable",
      "type": "function"
    },
    {
      "inputs": [
        {
          "internalType": "address",
          "name": "owner",
          "type": "address"
        },
        {
          "internalType": "address",
          "name": "operator",
          "type": "address"
        }
      ],
      "name": "isApprovedForAll",
      "outputs": [
        {
          "internalType": "bool",
          "name": "",
          "type": "bool"
        }
      ],
      "stateMutability": "view",
      "type": "function"
    },
    {
      "inputs": [],
      "name": "maxSupply",
      "outputs": [
        {
          "internalType": "uint256",
          "name": "",
          "type": "uint256"
        }
      ],
      "stateMutability": "view",
      "type": "function"
    },
    {
      "inputs": [],
      "name": "merkleRoot",
      "outputs": [
        {
          "internalType": "bytes32",
          "name": "",
          "type": "bytes32"
        }
      ],
      "stateMutability": "view",
      "type": "function"
    },
    {
      "inputs": [],
      "name": "name",
      "outputs": [
        {
          "internalType": "string",
          "name": "",
          "type": "string"
        }
      ],
      "stateMutability": "view",
      "type": "function"
    },
    {
      "inputs": [],
      "name": "notRevealedUri",
      "outputs": [
        {
          "internalType": "string",
          "name": "",
          "type": "string"
        }
      ],
      "stateMutability": "view",
      "type": "function"
    },
    {
      "inputs": [
        {
          "internalType": "address",
          "name": "owner",
          "type": "address"
        }
      ],
      "name": "numberMinted",
      "outputs": [
        {
          "internalType": "uint256",
          "name": "",
          "type": "uint256"
        }
      ],
      "stateMutability": "view",
      "type": "function"
    },
    {
      "inputs": [],
      "name": "owner",
      "outputs": [
        {
          "internalType": "address",
          "name": "",
          "type": "address"
        }
      ],
      "stateMutability": "view",
      "type": "function"
    },
    {
      "inputs": [
        {
          "internalType": "uint256",
          "name": "tokenId",
          "type": "uint256"
        }
      ],
      "name": "ownerOf",
      "outputs": [
        {
          "internalType": "address",
          "name": "",
          "type": "address"
        }
      ],
      "stateMutability": "view",
      "type": "function"
    },
    {
      "inputs": [
        {
          "internalType": "bool",
          "name": "_state",
          "type": "bool"
        }
      ],
      "name": "pause",
      "outputs": [],
      "stateMutability": "nonpayable",
      "type": "function"
    },
    {
      "inputs": [],
      "name": "paused",
      "outputs": [
        {
          "internalType": "bool",
          "name": "",
          "type": "bool"
        }
      ],
      "stateMutability": "view",
      "type": "function"
    },
    {
      "inputs": [],
      "name": "publicSale",
      "outputs": [
        {
          "internalType": "bool",
          "name": "",
          "type": "bool"
        }
      ],
      "stateMutability": "view",
      "type": "function"
    },
    {
      "inputs": [
        {
          "internalType": "uint256",
          "name": "tokens",
          "type": "uint256"
        }
      ],
      "name": "publicSaleMint",
      "outputs": [],
      "stateMutability": "payable",
      "type": "function"
    },
    {
      "inputs": [],
      "name": "renounceOwnership",
      "outputs": [],
      "stateMutability": "nonpayable",
      "type": "function"
    },
    {
      "inputs": [
        {
          "internalType": "bool",
          "name": "_state",
          "type": "bool"
        }
      ],
      "name": "reveal",
      "outputs": [],
      "stateMutability": "nonpayable",
      "type": "function"
    },
    {
      "inputs": [],
      "name": "revealed",
      "outputs": [
        {
          "internalType": "bool",
          "name": "",
          "type": "bool"
        }
      ],
      "stateMutability": "view",
      "type": "function"
    },
    {
      "inputs": [
        {
          "internalType": "address",
          "name": "from",
          "type": "address"
        },
        {
          "internalType": "address",
          "name": "to",
          "type": "address"
        },
        {
          "internalType": "uint256",
          "name": "tokenId",
          "type": "uint256"
        }
      ],
      "name": "safeTransferFrom",
      "outputs": [],
      "stateMutability": "payable",
      "type": "function"
    },
    {
      "inputs": [
        {
          "internalType": "address",
          "name": "from",
          "type": "address"
        },
        {
          "internalType": "address",
          "name": "to",
          "type": "address"
        },
        {
          "internalType": "uint256",
          "name": "tokenId",
          "type": "uint256"
        },
        {
          "internalType": "bytes",
          "name": "_data",
          "type": "bytes"
        }
      ],
      "name": "safeTransferFrom",
      "outputs": [],
      "stateMutability": "payable",
      "type": "function"
    },
    {
      "inputs": [
        {
          "internalType": "address",
          "name": "operator",
          "type": "address"
        },
        {
          "internalType": "bool",
          "name": "approved",
          "type": "bool"
        }
      ],
      "name": "setApprovalForAll",
      "outputs": [],
      "stateMutability": "nonpayable",
      "type": "function"
    },
    {
      "inputs": [
        {
          "internalType": "string",
          "name": "_newBaseExtension",
          "type": "string"
        }
      ],
      "name": "setBaseExtension",
      "outputs": [],
      "stateMutability": "nonpayable",
      "type": "function"
    },
    {
      "inputs": [
        {
          "internalType": "string",
          "name": "_newBaseURI",
          "type": "string"
        }
      ],
      "name": "setBaseURI",
      "outputs": [],
      "stateMutability": "nonpayable",
      "type": "function"
    },
    {
      "inputs": [
        {
          "internalType": "uint256",
          "name": "_newCost",
          "type": "uint256"
        }
      ],
      "name": "setCost",
      "outputs": [],
      "stateMutability": "nonpayable",
      "type": "function"
    },
    {
      "inputs": [
        {
          "internalType": "uint256",
          "name": "_limit",
          "type": "uint256"
        }
      ],
      "name": "setMaxPerWallet",
      "outputs": [],
      "stateMutability": "nonpayable",
      "type": "function"
    },
    {
      "inputs": [
        {
          "internalType": "uint256",
          "name": "_limit",
          "type": "uint256"
        }
      ],
      "name": "setMaxperWalletWL",
      "outputs": [],
      "stateMutability": "nonpayable",
      "type": "function"
    },
    {
      "inputs": [
        {
          "internalType": "uint256",
          "name": "_newsupply",
          "type": "uint256"
        }
      ],
      "name": "setMaxsupply",
      "outputs": [],
      "stateMutability": "nonpayable",
      "type": "function"
    },
    {
      "inputs": [
        {
          "internalType": "bytes32",
          "name": "_merkleRoot",
          "type": "bytes32"
        }
      ],
      "name": "setMerkleRoot",
      "outputs": [],
      "stateMutability": "nonpayable",
      "type": "function"
    },
    {
      "inputs": [
        {
          "internalType": "string",
          "name": "_notRevealedURI",
          "type": "string"
        }
      ],
      "name": "setNotRevealedURI",
      "outputs": [],
      "stateMutability": "nonpayable",
      "type": "function"
    },
    {
      "inputs": [
        {
          "internalType": "uint256",
          "name": "_newCost",
          "type": "uint256"
        }
      ],
      "name": "setwlCost",
      "outputs": [],
      "stateMutability": "nonpayable",
      "type": "function"
    },
    {
      "inputs": [
        {
          "internalType": "bytes4",
          "name": "interfaceId",
          "type": "bytes4"
        }
      ],
      "name": "supportsInterface",
      "outputs": [
        {
          "internalType": "bool",
          "name": "",
          "type": "bool"
        }
      ],
      "stateMutability": "view",
      "type": "function"
    },
    {
      "inputs": [],
      "name": "symbol",
      "outputs": [
        {
          "internalType": "string",
          "name": "",
          "type": "string"
        }
      ],
      "stateMutability": "view",
      "type": "function"
    },
    {
      "inputs": [
        {
          "internalType": "bool",
          "name": "_state",
          "type": "bool"
        }
      ],
      "name": "toggleWlMint",
      "outputs": [],
      "stateMutability": "nonpayable",
      "type": "function"
    },
    {
      "inputs": [
        {
          "internalType": "bool",
          "name": "_state",
          "type": "bool"
        }
      ],
      "name": "togglepublicSale",
      "outputs": [],
      "stateMutability": "nonpayable",
      "type": "function"
    },
    {
      "inputs": [
        {
          "internalType": "uint256",
          "name": "tokenId",
          "type": "uint256"
        }
      ],
      "name": "tokenURI",
      "outputs": [
        {
          "internalType": "string",
          "name": "",
          "type": "string"
        }
      ],
      "stateMutability": "view",
      "type": "function"
    },
    {
      "inputs": [],
      "name": "totalSupply",
      "outputs": [
        {
          "internalType": "uint256",
          "name": "",
          "type": "uint256"
        }
      ],
      "stateMutability": "view",
      "type": "function"
    },
    {
      "inputs": [
        {
          "internalType": "address",
          "name": "from",
          "type": "address"
        },
        {
          "internalType": "address",
          "name": "to",
          "type": "address"
        },
        {
          "internalType": "uint256",
          "name": "tokenId",
          "type": "uint256"
        }
      ],
      "name": "transferFrom",
      "outputs": [],
      "stateMutability": "payable",
      "type": "function"
    },
    {
      "inputs": [
        {
          "internalType": "address",
          "name": "newOwner",
          "type": "address"
        }
      ],
      "name": "transferOwnership",
      "outputs": [],
      "stateMutability": "nonpayable",
      "type": "function"
    },
    {
      "inputs": [],
      "name": "withdraw",
      "outputs": [],
      "stateMutability": "payable",
      "type": "function"
    },
    {
      "inputs": [],
      "name": "wlCost",
      "outputs": [
        {
          "internalType": "uint256",
          "name": "",
          "type": "uint256"
        }
      ],
      "stateMutability": "view",
      "type": "function"
    },
    {
      "inputs": [],
      "name": "wlMint",
      "outputs": [
        {
          "internalType": "bool",
          "name": "",
          "type": "bool"
        }
      ],
      "stateMutability": "view",
      "type": "function"
    }
  ],
  "bytecode": "0x60c06040526005608081905264173539b7b760d91b60a09081526200002891600b919062000209565b50670853a0d2313c0000600d556000600e81905561038c600f55600560108190556011556012805463ffffffff191663010001001790556013553480156200006f57600080fd5b506040516200280a3803806200280a8339810160408190526200009291620002c5565b604080518082018252601581527f536b756c6c204b6c7562204c696d6974204c657373000000000000000000000060208083019182528351808501909452600484526314d2d31360e21b908401528151919291620000f39160029162000209565b5080516200010990600390602084019062000209565b50506001600055506200011c3362000133565b60016009556200012c8162000185565b50620003de565b600880546001600160a01b038381166001600160a01b0319831681179093556040519116919082907f8be0079c531659141344cd1fd0a4f28419497f9722a3daafe3b4186f6b6457e090600090a35050565b6200018f620001a8565b8051620001a490600a90602084019062000209565b5050565b6008546001600160a01b03163314620002075760405162461bcd60e51b815260206004820181905260248201527f4f776e61626c653a2063616c6c6572206973206e6f7420746865206f776e6572604482015260640160405180910390fd5b565b8280546200021790620003a1565b90600052602060002090601f0160209004810192826200023b576000855562000286565b82601f106200025657805160ff191683800117855562000286565b8280016001018555821562000286579182015b828111156200028657825182559160200191906001019062000269565b506200029492915062000298565b5090565b5b8082111562000294576000815560010162000299565b634e487b7160e01b600052604160045260246000fd5b60006020808385031215620002d957600080fd5b82516001600160401b0380821115620002f157600080fd5b818501915085601f8301126200030657600080fd5b8151818111156200031b576200031b620002af565b604051601f8201601f19908116603f01168101908382118183101715620003465762000346620002af565b8160405282815288868487010111156200035f57600080fd5b600093505b8284101562000383578484018601518185018701529285019262000364565b82841115620003955760008684830101525b98975050505050505050565b600181811c90821680620003b657607f821691505b60208210811415620003d857634e487b7160e01b600052602260045260246000fd5b50919050565b61241c80620003ee6000396000f3fe6080604052600436106102935760003560e01c80637cb647591161015a578063c6682862116100c1578063e268e4d31161007a578063e268e4d314610734578063e985e9c514610754578063f05398021461079d578063f2c4ce1e146107bd578063f2fde38b146107dd578063f3257cdd146107fd57600080fd5b8063c668286214610693578063c87b56dd146106a8578063d5abeb01146106c8578063d70a28d1146106de578063da3ef23f146106f4578063dc33e6811461071457600080fd5b8063a22cb46511610113578063a22cb46514610601578063ac81308814610621578063aeeae3a614610641578063b3ab66b014610657578063b88d4fde1461066a578063bd7a19981461067d57600080fd5b80637cb647591461054e5780637f9fa4111461056e57806383a076be1461058e5780638da5cb5b146105ae578063940cd05b146105cc57806395d89b41146105ec57600080fd5b80633ccfd60b116101fe57806361efde22116101b757806361efde22146104b15780636352211e146104c45780636a972e1a146104e45780636c0360eb1461050457806370a0823114610519578063715018a61461053957600080fd5b80633ccfd60b1461041d57806342842e0e1461042557806344a0d68a14610438578063518302271461045857806355f804b3146104775780635c975abb1461049757600080fd5b806313faede61161025057806313faede614610371578063149835a01461039557806318160ddd146103b557806323b872dd146103d35780632eb4a7ab146103e657806333bc1c5c146103fc57600080fd5b806301ffc9a71461029857806302329a29146102cd57806306fdde03146102ef578063081812fc14610311578063081c8c4414610349578063095ea7b31461035e575b600080fd5b3480156102a457600080fd5b506102b86102b3366004611e1f565b61081d565b60405190151581526020015b60405180910390f35b3480156102d957600080fd5b506102ed6102e8366004611e51565b61086f565b005b3480156102fb57600080fd5b5061030461088a565b6040516102c49190611ec4565b34801561031d57600080fd5b5061033161032c366004611ed7565b61091c565b6040516001600160a01b0390911681526020016102c4565b34801561035557600080fd5b50610304610960565b6102ed61036c366004611f07565b6109ee565b34801561037d57600080fd5b50610387600d5481565b6040519081526020016102c4565b3480156103a157600080fd5b506102ed6103b0366004611ed7565b610a8e565b3480156103c157600080fd5b50610387600154600054036000190190565b6102ed6103e1366004611f31565b610a9b565b3480156103f257600080fd5b5061038760135481565b34801561040857600080fd5b506012546102b8906301000000900460ff1681565b6102ed610c2c565b6102ed610433366004611f31565b610c9e565b34801561044457600080fd5b506102ed610453366004611ed7565b610cbe565b34801561046457600080fd5b506012546102b890610100900460ff1681565b34801561048357600080fd5b506102ed610492366004611ff9565b610ccb565b3480156104a357600080fd5b506012546102b89060ff1681565b6102ed6104bf366004612042565b610cea565b3480156104d057600080fd5b506103316104df366004611ed7565b61101e565b3480156104f057600080fd5b506102ed6104ff366004611ed7565b611029565b34801561051057600080fd5b50610304611036565b34801561052557600080fd5b506103876105343660046120c1565b611043565b34801561054557600080fd5b506102ed611092565b34801561055a57600080fd5b506102ed610569366004611ed7565b6110a4565b34801561057a57600080fd5b506012546102b89062010000900460ff1681565b34801561059a57600080fd5b506102ed6105a93660046120dc565b6110b1565b3480156105ba57600080fd5b506008546001600160a01b0316610331565b3480156105d857600080fd5b506102ed6105e7366004611e51565b611160565b3480156105f857600080fd5b50610304611182565b34801561060d57600080fd5b506102ed61061c366004612108565b611191565b34801561062d57600080fd5b506102ed61063c366004611e51565b6111fd565b34801561064d57600080fd5b5061038760115481565b6102ed610665366004611ed7565b611221565b6102ed610678366004612132565b61146d565b34801561068957600080fd5b5061038760105481565b34801561069f57600080fd5b506103046114b7565b3480156106b457600080fd5b506103046106c3366004611ed7565b6114c4565b3480156106d457600080fd5b50610387600f5481565b3480156106ea57600080fd5b50610387600e5481565b34801561070057600080fd5b506102ed61070f366004611ff9565b611634565b34801561072057600080fd5b5061038761072f3660046120c1565b61164f565b34801561074057600080fd5b506102ed61074f366004611ed7565b61167a565b34801561076057600080fd5b506102b861076f3660046121ae565b6001600160a01b03918216600090815260076020908152604080832093909416825291909152205460ff1690565b3480156107a957600080fd5b506102ed6107b8366004611ed7565b611687565b3480156107c957600080fd5b506102ed6107d8366004611ff9565b611694565b3480156107e957600080fd5b506102ed6107f83660046120c1565b6116af565b34801561080957600080fd5b506102ed610818366004611e51565b611725565b60006301ffc9a760e01b6001600160e01b03198316148061084e57506380ac58cd60e01b6001600160e01b03198316145b806108695750635b5e139f60e01b6001600160e01b03198316145b92915050565b61087761174b565b6012805460ff1916911515919091179055565b606060028054610899906121d8565b80601f01602080910402602001604051908101604052809291908181526020018280546108c5906121d8565b80156109125780601f106108e757610100808354040283529160200191610912565b820191906000526020600020905b8154815290600101906020018083116108f557829003601f168201915b5050505050905090565b6000610927826117a5565b610944576040516333d1c03960e21b815260040160405180910390fd5b506000908152600660205260409020546001600160a01b031690565b600c805461096d906121d8565b80601f0160208091040260200160405190810160405280929190818152602001828054610999906121d8565b80156109e65780601f106109bb576101008083540402835291602001916109e6565b820191906000526020600020905b8154815290600101906020018083116109c957829003601f168201915b505050505081565b60006109f98261101e565b9050336001600160a01b03821614610a3257610a15813361076f565b610a32576040516367d9dca160e11b815260040160405180910390fd5b60008281526006602052604080822080546001600160a01b0319166001600160a01b0387811691821790925591518593918516917f8c5be1e5ebec7d5bd14f71427d1e84f3dd0314c0f7b2291e5b200ac8c7c3b92591a4505050565b610a9661174b565b600f55565b6000610aa6826117da565b9050836001600160a01b0316816001600160a01b031614610ad95760405162a1148160e81b815260040160405180910390fd5b60008281526006602052604090208054338082146001600160a01b03881690911417610b2657610b09863361076f565b610b2657604051632ce44b5f60e11b815260040160405180910390fd5b6001600160a01b038516610b4d57604051633a954ecd60e21b815260040160405180910390fd5b8015610b5857600082555b6001600160a01b038681166000908152600560205260408082208054600019019055918716808252919020805460010190554260a01b17600160e11b17600085815260046020526040902055600160e11b8316610be35760018401600081815260046020526040902054610be1576000548114610be15760008181526004602052604090208490555b505b83856001600160a01b0316876001600160a01b03167fddf252ad1be2c89b69c2b068fc378daa952ba7f163c4a11628f55a4df523b3ef60405160405180910390a4505050505050565b610c3461174b565b610c3c611843565b604051600090339047908381818185875af1925050503d8060008114610c7e576040519150601f19603f3d011682016040523d82523d6000602084013e610c83565b606091505b5050905080610c9157600080fd5b50610c9c6001600955565b565b610cb98383836040518060200160405280600081525061146d565b505050565b610cc661174b565b600d55565b610cd361174b565b8051610ce690600a906020840190611d70565b5050565b610cf2611843565b60125460ff1615610d445760405162461bcd60e51b81526020600482015260176024820152761bdbdc1cc818dbdb9d1c9858dd081a5cc81c185d5cd959604a1b60448201526064015b60405180910390fd5b60125462010000900460ff16610d9c5760405162461bcd60e51b815260206004820152601a60248201527f776c206d696e74204861736e27742073746172746564207965740000000000006044820152606401610d3b565b610e11828280806020026020016040519081016040528093929190818152602001838360200280828437600092019190915250506013546040516bffffffffffffffffffffffff193360601b16602082015290925060340190506040516020818303038152906040528051906020012061189d565b610e5d5760405162461bcd60e51b815260206004820152601d60248201527f20596f7520617265206e6f7420696e207468652077686974656c6973740000006044820152606401610d3b565b6000610e70600154600054036000190190565b905060115484610ea9610e803390565b6001600160a01b03166000908152600560205260409081902054901c67ffffffffffffffff1690565b610eb39190612229565b1115610f015760405162461bcd60e51b815260206004820152601b60248201527f4d6178204e4654205065722057616c6c657420657863656564656400000000006044820152606401610d3b565b60008411610f215760405162461bcd60e51b8152600401610d3b90612241565b600f54610f2e8583612229565b1115610f695760405162461bcd60e51b815260206004820152600a60248201526915d94814dbdb191bdd5d60b21b6044820152606401610d3b565b601154841115610fbb5760405162461bcd60e51b815260206004820152601860248201527f6d6178206d696e742070657220547820657863656564656400000000000000006044820152606401610d3b565b83600e54610fc99190612278565b3410156110095760405162461bcd60e51b815260206004820152600e60248201526d0dcdee840cadcdeeaced040cae8d60931b6044820152606401610d3b565b61101333856118b3565b50610cb96001600955565b6000610869826117da565b61103161174b565b600e55565b600a805461096d906121d8565b60006001600160a01b03821661106c576040516323d3ad8160e21b815260040160405180910390fd5b506001600160a01b031660009081526005602052604090205467ffffffffffffffff1690565b61109a61174b565b610c9c60006118cd565b6110ac61174b565b601355565b6110b961174b565b6110c1611843565b600082116110e15760405162461bcd60e51b8152600401610d3b90612241565b60006110f4600154600054036000190190565b600f549091506111048483612229565b111561114b5760405162461bcd60e51b81526020600482015260166024820152751b585e08139195081b1a5b5a5d08195e18d95959195960521b6044820152606401610d3b565b61115582846118b3565b50610ce66001600955565b61116861174b565b601280549115156101000261ff0019909216919091179055565b606060038054610899906121d8565b3360008181526007602090815260408083206001600160a01b03871680855290835292819020805460ff191686151590811790915590519081529192917f17307eab39ab6107e8899845ad3d59bd9653f200f220920489ca2b5937696c31910160405180910390a35050565b61120561174b565b60128054911515620100000262ff000019909216919091179055565b611229611843565b60125460ff16156112765760405162461bcd60e51b81526020600482015260176024820152761bdbdc1cc818dbdb9d1c9858dd081a5cc81c185d5cd959604a1b6044820152606401610d3b565b6012546301000000900460ff166112cf5760405162461bcd60e51b815260206004820152601760248201527f53616c65204861736e27742073746172746564207965740000000000000000006044820152606401610d3b565b60006112e2600154600054036000190190565b9050600082116113045760405162461bcd60e51b8152600401610d3b90612241565b6010548211156113565760405162461bcd60e51b815260206004820152601f60248201527f6d6178206d696e7420616d6f756e7420706572207478206578636565646564006044820152606401610d3b565b600f546113638383612229565b111561139e5760405162461bcd60e51b815260206004820152600a60248201526915d94814dbdb191bdd5d60b21b6044820152606401610d3b565b601054826113ab33610e80565b6113b59190612229565b11156114035760405162461bcd60e51b815260206004820152601c60248201527f204d6178204e4654205065722057616c6c6574206578636565646564000000006044820152606401610d3b565b81600d546114119190612278565b3410156114555760405162461bcd60e51b8152602060048201526012602482015271696e73756666696369656e742066756e647360701b6044820152606401610d3b565b61145f33836118b3565b5061146a6001600955565b50565b611478848484610a9b565b6001600160a01b0383163b156114b1576114948484848461191f565b6114b1576040516368d2bf6b60e11b815260040160405180910390fd5b50505050565b600b805461096d906121d8565b60606114cf826117a5565b6115345760405162461bcd60e51b815260206004820152603060248201527f455243373231414d657461646174613a2055524920717565727920666f72206e60448201526f37b732bc34b9ba32b73a103a37b5b2b760811b6064820152608401610d3b565b601254610100900460ff166115d557600c8054611550906121d8565b80601f016020809104026020016040519081016040528092919081815260200182805461157c906121d8565b80156115c95780601f1061159e576101008083540402835291602001916115c9565b820191906000526020600020905b8154815290600101906020018083116115ac57829003601f168201915b50505050509050919050565b60006115df611a17565b905060008151116115ff576040518060200160405280600081525061162d565b8061160984611a26565b600b60405160200161161d93929190612297565b6040516020818303038152906040525b9392505050565b61163c61174b565b8051610ce690600b906020840190611d70565b6001600160a01b0381166000908152600560205260408082205467ffffffffffffffff911c16610869565b61168261174b565b601055565b61168f61174b565b601155565b61169c61174b565b8051610ce690600c906020840190611d70565b6116b761174b565b6001600160a01b03811661171c5760405162461bcd60e51b815260206004820152602660248201527f4f776e61626c653a206e6577206f776e657220697320746865207a65726f206160448201526564647265737360d01b6064820152608401610d3b565b61146a816118cd565b61172d61174b565b6012805491151563010000000263ff00000019909216919091179055565b6008546001600160a01b03163314610c9c5760405162461bcd60e51b815260206004820181905260248201527f4f776e61626c653a2063616c6c6572206973206e6f7420746865206f776e65726044820152606401610d3b565b6000816001111580156117b9575060005482105b8015610869575050600090815260046020526040902054600160e01b161590565b6000818060011161182a5760005481101561182a57600081815260046020526040902054600160e01b8116611828575b8061162d57506000190160008181526004602052604090205461180a565b505b604051636f96cda160e11b815260040160405180910390fd5b600260095414156118965760405162461bcd60e51b815260206004820152601f60248201527f5265656e7472616e637947756172643a207265656e7472616e742063616c6c006044820152606401610d3b565b6002600955565b6000826118aa8584611ac3565b14949350505050565b610ce6828260405180602001604052806000815250611b08565b600880546001600160a01b038381166001600160a01b0319831681179093556040519116919082907f8be0079c531659141344cd1fd0a4f28419497f9722a3daafe3b4186f6b6457e090600090a35050565b604051630a85bd0160e11b81526000906001600160a01b0385169063150b7a029061195490339089908890889060040161235b565b602060405180830381600087803b15801561196e57600080fd5b505af192505050801561199e575060408051601f3d908101601f1916820190925261199b91810190612398565b60015b6119f9573d8080156119cc576040519150601f19603f3d011682016040523d82523d6000602084013e6119d1565b606091505b5080516119f1576040516368d2bf6b60e11b815260040160405180910390fd5b805181602001fd5b6001600160e01b031916630a85bd0160e11b1490505b949350505050565b6060600a8054610899906121d8565b60606000611a3383611b75565b600101905060008167ffffffffffffffff811115611a5357611a53611f6d565b6040519080825280601f01601f191660200182016040528015611a7d576020820181803683370190505b5090508181016020015b600019016f181899199a1a9b1b9c1cb0b131b232b360811b600a86061a8153600a8504945084611ab657611abb565b611a87565b509392505050565b600081815b8451811015611abb57611af482868381518110611ae757611ae76123b5565b6020026020010151611c4d565b915080611b00816123cb565b915050611ac8565b611b128383611c79565b6001600160a01b0383163b15610cb9576000548281035b611b3c600086838060010194508661191f565b611b59576040516368d2bf6b60e11b815260040160405180910390fd5b818110611b29578160005414611b6e57600080fd5b5050505050565b60008072184f03e93ff9f4daa797ed6e38ed64bf6a1f0160401b8310611bb45772184f03e93ff9f4daa797ed6e38ed64bf6a1f0160401b830492506040015b6d04ee2d6d415b85acef81000000008310611be0576d04ee2d6d415b85acef8100000000830492506020015b662386f26fc100008310611bfe57662386f26fc10000830492506010015b6305f5e1008310611c16576305f5e100830492506008015b6127108310611c2a57612710830492506004015b60648310611c3c576064830492506002015b600a83106108695760010192915050565b6000818310611c6957600082815260208490526040902061162d565b5060009182526020526040902090565b60005481611c9a5760405163b562e8dd60e01b815260040160405180910390fd5b6001600160a01b03831660008181526005602090815260408083208054680100000000000000018802019055848352600490915281206001851460e11b4260a01b178317905582840190839083907fddf252ad1be2c89b69c2b068fc378daa952ba7f163c4a11628f55a4df523b3ef8180a4600183015b818114611d4957808360007fddf252ad1be2c89b69c2b068fc378daa952ba7f163c4a11628f55a4df523b3ef600080a4600101611d11565b5081611d6757604051622e076360e81b815260040160405180910390fd5b60005550505050565b828054611d7c906121d8565b90600052602060002090601f016020900481019282611d9e5760008555611de4565b82601f10611db757805160ff1916838001178555611de4565b82800160010185558215611de4579182015b82811115611de4578251825591602001919060010190611dc9565b50611df0929150611df4565b5090565b5b80821115611df05760008155600101611df5565b6001600160e01b03198116811461146a57600080fd5b600060208284031215611e3157600080fd5b813561162d81611e09565b80358015158114611e4c57600080fd5b919050565b600060208284031215611e6357600080fd5b61162d82611e3c565b60005b83811015611e87578181015183820152602001611e6f565b838111156114b15750506000910152565b60008151808452611eb0816020860160208601611e6c565b601f01601f19169290920160200192915050565b60208152600061162d6020830184611e98565b600060208284031215611ee957600080fd5b5035919050565b80356001600160a01b0381168114611e4c57600080fd5b60008060408385031215611f1a57600080fd5b611f2383611ef0565b946020939093013593505050565b600080600060608486031215611f4657600080fd5b611f4f84611ef0565b9250611f5d60208501611ef0565b9150604084013590509250925092565b634e487b7160e01b600052604160045260246000fd5b600067ffffffffffffffff80841115611f9e57611f9e611f6d565b604051601f8501601f19908116603f01168101908282118183101715611fc657611fc6611f6d565b81604052809350858152868686011115611fdf57600080fd5b858560208301376000602087830101525050509392505050565b60006020828403121561200b57600080fd5b813567ffffffffffffffff81111561202257600080fd5b8201601f8101841361203357600080fd5b611a0f84823560208401611f83565b60008060006040848603121561205757600080fd5b83359250602084013567ffffffffffffffff8082111561207657600080fd5b818601915086601f83011261208a57600080fd5b81358181111561209957600080fd5b8760208260051b85010111156120ae57600080fd5b6020830194508093505050509250925092565b6000602082840312156120d357600080fd5b61162d82611ef0565b600080604083850312156120ef57600080fd5b823591506120ff60208401611ef0565b90509250929050565b6000806040838503121561211b57600080fd5b61212483611ef0565b91506120ff60208401611e3c565b6000806000806080858703121561214857600080fd5b61215185611ef0565b935061215f60208601611ef0565b925060408501359150606085013567ffffffffffffffff81111561218257600080fd5b8501601f8101871361219357600080fd5b6121a287823560208401611f83565b91505092959194509250565b600080604083850312156121c157600080fd5b6121ca83611ef0565b91506120ff60208401611ef0565b600181811c908216806121ec57607f821691505b6020821081141561220d57634e487b7160e01b600052602260045260246000fd5b50919050565b634e487b7160e01b600052601160045260246000fd5b6000821982111561223c5761223c612213565b500190565b6020808252601b908201527f6e65656420746f206d696e74206174206c656173742031204e46540000000000604082015260600190565b600081600019048311821515161561229257612292612213565b500290565b6000845160206122aa8285838a01611e6c565b8551918401916122bd8184848a01611e6c565b8554920191600090600181811c90808316806122da57607f831692505b8583108114156122f857634e487b7160e01b85526022600452602485fd5b80801561230c576001811461231d5761234a565b60ff1985168852838801955061234a565b60008b81526020902060005b858110156123425781548a820152908401908801612329565b505083880195505b50939b9a5050505050505050505050565b6001600160a01b038581168252841660208201526040810183905260806060820181905260009061238e90830184611e98565b9695505050505050565b6000602082840312156123aa57600080fd5b815161162d81611e09565b634e487b7160e01b600052603260045260246000fd5b60006000198214156123df576123df612213565b506001019056fea264697066735822122045464637d2539661afab11d20cb1ed2c31e50f68df7c077feb5b148da76fb0ff64736f6c63430008090033",
  "linkReferences": {},
  "deployedLinkReferences": {}
}